:020000040800F2
:10000000000002201904000879040008790400089F
:100010007904000879040008790400080000000051
:10002000000000000000000000000000FD200008AB
:100030007904000800000000ED2200083D230008BC
:10004000790400087904000879040008790400089C
:10005000790400087904000879040008790400088C
:10006000790400087904000879040008790400087C
:10007000790400087904000879040008790400086C
:10008000790400087904000879040008790400085C
:100090007904000879040008790400083103000895
:1000A000790400087904000879040008790400083C
:1000B000F1020008890200087904000879040008A8
:1000C000790400087904000879040008790400081C
:1000D000790400087904000879040008790400080C
:1000E00079040008790400087904000879040008FC
:1000F00079040008790400087904000879040008EC
:1001000079040008790400087904000879040008DB
:1001100079040008790400087904000879040008CB
:1001200079040008790400087904000879040008BB
:1001300079040008790400087904000879040008AB
:10014000790400087904000879040008790400089B
:10015000790400087904000879040008790400088B
:10016000790400087904000879040008790400087B
:10017000790400087904000879040008790400086B
:0801800079040008790400086D
:1001880010B5054C237833B9044810B10448AFF3CF
:1001980000800121217010BD4804002000000000EB
:1001A8008036000808B5064B1BB106480649AFF370
:1001B80000800648016811B1054A02B1904708BDA0
:1001C80000000000803600084C040020480400208D
:1001D8000000000080B483B000AF0346FB714FF409
:1001E8006143CEF2000397F907204FEA5212F979DA
:1001F80001F01F014FF0010000FA01F102F1400285
:1002080043F8221007F10C07BD4680BC704700BFB9
:1002180080B500AF00F008F84FF0010002F056FC7E
:1002280000F082FBFEE700BF80B500AF00F022F9C6
:100238004FF4407002F00CFD00F0BCF880BD00BF28
:1002480080B500AF40F26443C2F200031B6803F1BB
:10025800010240F26443C2F200031A604FF01C002E
:10026800FFF7B8FF40F26443C2F200031B6803F1D2
:10027800FF3240F26443C2F200031A6080BD00BF3F
:1002880080B400AF40F26443C2F200031B6803F17C
:10029800010240F26443C2F200031A6040F2644370
:1002A800C2F200031A6840F26843C2F200031B68F6
:1002B8009A4209D940F26443C2F200031A6840F234
:1002C8006843C2F200031A6040F26443C2F20003BA
:1002D8001B6803F1FF3240F26443C2F200031A6064
:1002E800BD4680BC704700BF80B500AF40F2644394
:1002F800C2F200031B6803F1010240F26443C2F238
:1003080000031A604FF01D00FFF764FF40F26443DA
:10031800C2F200031B6803F1FF3240F26443C2F2E9
:1003280000031A6080BD00BF80B582B000AF4FF0F7
:1003380000037B604FF0400002F0B8FC40F26C43D1
:10034800C2F200031A6807F1040310464FF00001D7
:100358001A464FF0000301F02FFB7B68002B06D0F4
:100368004EF60453CEF200034FF080521A6007F1A4
:100378000807BD4680BD00BF80B500AF01F0A4FFEF
:10038800FEE700BF80B400AFBD4680BC704700BF29
:1003980080B582B000AF7860396001F095FFFEE764
:1003A80080B483B000AF7860396007F10C07BD46B0
:1003B80080BC704780B500AF4FF0010002F0F0FB41
:1003C8004FF0000002F0ECFB4FF0020002F0E8FBF7
:1003D8004FF0030002F0E4FB80BD00BF80B582B09F
:1003E80000AF78607B68032B0DD801F03DFF43F226
:1003F8004463C0F600037A689B181B78184602F01D
:1004080005FC01F047FF07F10807BD4680BD00BFA6
:10041800002100F004B8104B5B58435004310F48DA
:100428000F4B42189A42FFF4F6AF0E4A00F003B899
:10043800002342F8043B0C4B9A42FFF4F9AF0B48F7
:10044800016841F47001016000F014F802F060FEE8
:10045800FFF7DEFE70470000A43600080000002009
:100468004804002048040020B831012088ED00E04D
:10047800FFF7FEBF80B500AF4FF46D43CEF2000327
:100488004FF46D42CEF20002D2F8882042F4700296
:10049800C3F888204FF46053C4F202034FF460524B
:1004A800C4F20202126842F001021A604FF460536B
:1004B800C4F202034FF000029A604FF46053C4F292
:1004C80002034FF46052C4F20202126822F08472EE
:1004D80022F480321A604FF46053C4F2020343F2EC
:1004E8001002C2F200425A604FF46053C4F2020391
:1004F8004FF46052C4F20202126822F480221A6099
:100508004FF46053C4F202034FF00002DA6000F0C7
:1005180009F84FF46D43CEF200034FF000629A6081
:1005280080BD00BF80B483B000AF4FF000037B6094
:100538004FF000033B604FF46053C4F202034FF4E2
:100548006052C4F20202126842F480321A604FF418
:100558006053C4F202031B6803F400333B607B68FA
:1005680003F101037B603B68002B03D17B68B3F583
:10057800A06FECD14FF46053C4F202031B6803F47C
:100588000033002B03D04FF001033B6002E04FF033
:1005980000033B603B68012B40F082804FF46053BE
:1005A800C4F202034FF46052C4F20202126C42F029
:1005B80080521A644FF4E043C4F200034FF4E0425F
:1005C800C4F20002126842F480421A604FF4605389
:1005D800C4F202034FF46052C4F2020292689A60B5
:1005E8004FF46053C4F202034FF46052C4F20202A3
:1005F800926842F400429A604FF46053C4F20203D6
:100608004FF46052C4F20202926842F4A0529A6017
:100618004FF46053C4F2020344F61932C0F2407238
:100628005A604FF46053C4F202034FF46052C4F2AC
:100638000202126842F080721A6000BF4FF46053E1
:10064800C4F202031B6803F00073002BF6D04FF4CA
:100658007053C4F2020340F204621A604FF460530C
:10066800C4F202034FF46052C4F20202926822F00C
:1006780003029A604FF46053C4F202034FF46052CD
:10068800C4F20202926842F002029A6000BF4FF47C
:100698006053C4F202039B6803F00C03082BF6D1E5
:1006A80007F10C07BD4680BC704700BF80B58AB013
:1006B80002AFF860B9603B601346FB80FB68002B13
:1006C80002D101F001FEFEE7BB6A042B02D901F05A
:1006D800FBFDFEE7FB881846396B00F0D1FEB861D8
:1006E800BB69002B00F0A380BB691A6BFB8803F180
:1006F800FF334FEA8303D3187B617B6923F0070339
:100708007B617B6903F00703002B02D001F0DCFD5D
:10071800FEE7FB880093B869B968BA6A7B6B00F09A
:1007280079FD7869F9683A6801F09AFC0246BB6974
:100738001A60FB6A002B02D0FB6ABA691A6001F0E2
:1007480093FD40F24853C2F200031B6803F1010213
:1007580040F24853C2F200031A6040F27043C2F2FA
:1007680000031B68002B0FD140F27043C2F2000354
:10077800BA691A6040F24853C2F200031B68012BA1
:1007880018D100F097FD15E040F25453C2F200036F
:100798001B68002B0ED140F27043C2F200031B68A5
:1007A800DA6ABB6A9A4205D840F27043C2F2000383
:1007B800BA691A6040F26853C2F200031B6803F179
:1007C800010240F26853C2F200031A6040F2685313
:1007D800C2F200031A68BB691A64BB69DA6A40F29C
:1007E8005053C2F200031B689A4206D9BB69DA6A01
:1007F80040F25053C2F200031A60BB69DA6A13462A
:100808004FEA83039B184FEA830340F27442C2F213
:1008180000029A18BB6903F104031046194601F057
:1008280095FB4FF00103FB6101F034FD02E04FF04E
:10083800FF33FB61FB69012B11D140F25453C2F223
:1008480000031B68002B0AD040F27043C2F2000379
:100858001B68DA6ABB6A9A4201D201F0F5FCFB69AF
:10086800184607F12007BD4680BD00BF80B586B099
:1008780000AF786039604FF000037B617B68002B24
:1008880002D101F021FDFEE73B68002B02D101F007
:100898001BFDFEE700F08CF840F24C53C2F2000357
:1008A8001B683B617B681A683B68D318FB607B68F0
:1008B8001A683B699A420CD97B681A68FB689A42A5
:1008C80013D9FA683B699A420FD94FF001037B614B
:1008D8000BE07B681A68FB689A4203D8FA683B69A0
:1008E8009A4202D94FF001037B617B68FA681A606B
:1008F8007B69002B0CD040F27043C2F200031B68E6
:1009080003F10403184601F07FFBF86800F072FD5C
:1009180000F060F8B860BB68002B01D101F094FCCE
:1009280007F11807BD4680BD80B586B004AF4FF00B
:10093800000300934FF0000301934FF0000302936C
:100948004FF00003039341F2F910C0F6000043F2A0
:10095800F441C0F600014FF082024FF00003FFF7A8
:10096800A5FE78607B68012B02D101F055FD786007
:100978007B68012B12D101F0A7FC40F25453C2F25C
:1009880000034FF001021A6040F24C53C2F2000318
:100998004FF000021A6001F0C5FB05E07B68002BF0
:1009A80002D101F091FCFEE707F10807BD4680BDC2
:1009B80080B400AF40F25853C2F200031B6803F141
:1009C800010240F25853C2F200031A60BD4680BCCF
:1009D800704700BF80B582B000AF4FF000037B6066
:1009E80040F25853C2F200031B68002B02D101F0F9
:1009F8006BFCFEE701F038FC40F25853C2F20003EA
:100A08001B6803F1FF3240F25853C2F200031A6028
:100A180040F25853C2F200031B68002B40F08B8051
:100A280040F24853C2F200031B68002B00F0838099
:100A380047E040F20853C2F20003DB68DB683B6022
:100A48003B6803F11803184601F0DEFA3B6803F12E
:100A58000403184601F0D8FA3B68DA6A40F25053AA
:100A6800C2F200031B689A4206D93B68DA6A40F270
:100A78005053C2F200031A603B68DA6A13464FEA21
:100A880083039B184FEA830340F27442C2F20002C8
:100A98009A183B6803F104031046194601F056FA08
:100AA8003B68DA6A40F27043C2F200031B68DB6AF3
:100AB8009A4206D340F26053C2F200034FF001029B
:100AC8001A6040F20853C2F200031B68002BB0D131
:100AD80040F25C53C2F200031B68002B1FD017E0E2
:100AE80000F046F80346002B06D040F26053C2F2ED
:100AF80000034FF001021A6040F25C53C2F2000397
:100B08001B6803F1FF3240F25C53C2F200031A6023
:100B180040F25C53C2F200031B68002BE0D140F2A4
:100B28006053C2F200031B68012B04D14FF001038C
:100B38007B6001F089FB01F0ADFB7B68184607F18B
:100B48000807BD4680BD00BF80B582B000AF01F088
:100B58008BFB40F24C53C2F200031B687B6001F030
:100B680099FB7B68184607F10807BD4680BD00BFA2
:100B780080B586B000AF4FF000037B6140F2585358
:100B8800C2F200031B68002B40F0028140F24C5374
:100B9800C2F200031B6803F1010240F24C53C2F297
:100BA80000031A6040F24C53C2F200031B683B6119
:100BB8003B69002B52D140F20053C2F200031B687C
:100BC8001B68002B02D001F07FFBFEE740F20053C8
:100BD800C2F200031B68FB6040F20453C2F2000338
:100BE8001A6840F20053C2F200031A6040F204533C
:100BF800C2F20003FA681A6040F26453C2F20003BA
:100C08001B6803F1010240F26453C2F200031A6048
:100C180040F20053C2F200031B681B68002B02D18C
:100C28004FF0010301E04FF00003002B07D040F222
:100C38000403C2F200034FF0FF321A600EE040F2E4
:100C48000053C2F200031B68DB68DB68BB60BB684B
:100C58005A6840F20403C2F200031A6040F2040327
:100C6800C2F200031B683A699A4270D300E000BFE1
:100C780040F20053C2F200031B681B68002B02D12C
:100C88004FF0010301E04FF00003002B07D040F2C2
:100C98000403C2F200034FF0FF321A6057E040F23B
:100CA8000053C2F200031B68DB68DB68BB60BB68EB
:100CB8005B687B603A697B689A4206D240F204031B
:100CC800C2F200037A681A6041E0BB6803F10403CA
:100CD800184601F099F9BB689B6A002B05D0BB68E0
:100CE80003F11803184601F08FF9BB68DA6A40F27D
:100CF8005053C2F200031B689A4206D9BB68DA6AED
:100D080040F25053C2F200031A60BB68DA6A134615
:100D18004FEA83039B184FEA830340F27442C2F2FE
:100D280000029A18BB6803F104031046194601F043
:100D38000DF9BB68DA6A40F27043C2F200031B681F
:100D4800DB6A9A4293D34FF001037B618FE740F24D
:100D58007043C2F200031B68D96A40F27442C2F2BF
:100D680000020B464FEA83035B184FEA8303D3184C
:100D78001B68012B02D94FF001037B6140F25C53E1
:100D8800C2F200031B68002B10D1FFF759FA0DE0DF
:100D980040F25C53C2F200031B6803F1010240F207
:100DA8005C53C2F200031A60FFF74AFA40F260533C
:100DB800C2F200031B68002B02D04FF001037B61D5
:100DC8007B69184607F11807BD4680BD80B582B01B
:100DD80000AF40F25853C2F200031B68002B07D043
:100DE80040F26053C2F200034FF001021A609AE029
:100DF80040F26053C2F200034FF000021A6040F262
:100E08007043C2F200031B681A6840F27043C2F2D2
:100E180000031B681B6B9A420FD840F27043C2F262
:100E280000031A6840F27043C2F200031B6803F122
:100E3800340310461946FFF7ABFA40F27043C2F28A
:100E480000031B681B6B184643F24861C0F600019B
:100E58004FF0140202F0A6F90346002B26D040F208
:100E68007043C2F200031A6840F27043C2F20003F2
:100E78001B6803F1340310461946FFF789FA15E099
:100E880040F25053C2F200031B68002B02D101F05C
:100E98001BFAFEE740F25053C2F200031B6803F14D
:100EA800FF3240F25053C2F200031A6040F250532E
:100EB800C2F20003196840F27442C2F200020B4603
:100EC8004FEA83035B184FEA8303D3181B68002B90
:100ED800D6D040F25053C2F200031A6813464FEAC4
:100EE80083039B184FEA830340F27442C2F2000264
:100EF8009B187B607B685B685A687B685A607B6874
:100F08005A687B6803F108039A4204D17B685B68DE
:100F18005A687B685A607B685B68DA6840F270439D
:100F2800C2F200031A6007F10807BD4680BD00BF82
:100F380080B584B000AF786039607B68002B02D13F
:100F480001F0C2F9FEE740F27043C2F200031B68E9
:100F580003F118037868194601F01CF840F2704351
:100F6800C2F200031B6803F10403184601F04CF8B1
:100F78003B68B3F1FF3F0ED140F27043C2F2000369
:100F88001B6803F1040340F23450C2F20000194612
:100F980000F0DCFF0AE040F24C53C2F200031A688A
:100FA8003B68D318FB60F86800F024FA07F11007D3
:100FB800BD4680BD80B584B000AF786039607B687D
:100FC800002B02D101F080F9FEE740F27043C2F233
:100FD80000031B6803F118037868194600F0B6FF90
:100FE80040F27043C2F200031B6803F10403184681
:100FF80001F00AF840F24C53C2F200031A683B6849
:10100800D318FB60F86800F0F5F907F11007BD4642
:1010180080BD00BF80B584B000AF78607B68DB68B6
:10102800DB68BB60BB68002B02D101F04DF9FEE71D
:10103800BB6803F11803184600F0E6FF40F2585366
:10104800C2F200031B68002B2AD1BB6803F104031A
:10105800184600F0D9FFBB68DA6A40F25053C2F272
:1010680000031B689A4206D9BB68DA6A40F25053FB
:10107800C2F200031A60BB68DA6A13464FEA8303B8
:101088009B184FEA830340F27442C2F200029A1896
:10109800BB6803F104031046194600F057FF09E046
:1010A800BB6803F1180340F20850C2F20000194669
:1010B80000F04CFFBB68DA6A40F27043C2F20003EA
:1010C8001B68DB6A9A420AD34FF00103FB6040F2C7
:1010D8006053C2F200034FF001021A6002E04FF0C1
:1010E8000003FB60FB68184607F11007BD4680BD8A
:1010F80080B582B000AF78607B68002B02D101F028
:10110800E3F8FEE740F26453C2F200031A687B6812
:101118001A6040F24C53C2F200031A687B685A60A6
:1011280007F10807BD4680BD80B584B000AF786080
:1011380039607B68002B02D101F0C6F8FEE73B68F6
:10114800002B02D101F0C0F8FEE701F08DF840F263
:101158004C53C2F200031B68BB603B681B68B3F1C9
:10116800FF3F03D14FF00003FB602CE07B681A6857
:1011780040F26453C2F200031B689A4208D07B68AD
:101188005A68BB689A4203D84FF00103FB601AE023
:101198007B685B68BA68D21A3B681B689A420FD2B0
:1011A8003B681A687B685968BB68CB1AD2183B68D9
:1011B8001A607868FFF79CFF4FF00003FB6002E0BD
:1011C8004FF00103FB6001F065F8FB68184607F172
:1011D8001007BD4680BD00BF80B400AF40F2605329
:1011E800C2F200034FF001021A60BD4680BC70478E
:1011F80080B582B000AF786000F0AEF840F274437A
:10120800C2F200031B68012B01D901F01DF8FFF79A
:10121800B9F8F1E780B586B000AFF860B9607A60D8
:101228003B604FF000037B6113E0BA687B69D31819
:101238001A78F9687B69CB1803F130031A71BA6818
:101248007B69D3181B78002B07D07B6903F1010356
:101258007B617B69092BE8D900E000BFFB684FF090
:10126800000283F83D207B68042B02D94FF0040369
:101278007B60FB687A68DA62FB687A689A64FB6864
:1012880003F10403184600F053FEFB6803F118034A
:10129800184600F04DFEFB68FA681A617B68C3F1D6
:1012A8000502FB689A61FB68FA685A6207F1180739
:1012B800BD4680BD80B582B000AF4FF000037B60B3
:1012C80012E07A6813464FEA83039B184FEA8303B8
:1012D80040F27442C2F200029B18184600F008FE61
:1012E8007B6803F101037B607B68042BE9D940F23A
:1012F800D840C2F2000000F0FBFD40F2EC40C2F220
:10130800000000F0F5FD40F20850C2F2000000F0C5
:10131800EFFD40F21C50C2F2000000F0E9FD40F27F
:101328003450C2F2000000F0E3FD40F20053C2F274
:10133800000340F2D842C2F200021A6040F204539D
:10134800C2F2000340F2EC42C2F200021A6007F156
:101358000807BD4680BD00BF80B582B000AF3DE044
:10136800FFF726FB40F21C53C2F200031B68002B58
:1013780014BF00230123DBB27B60FFF72BFB7B68E4
:10138800002B2BD100F070FF40F21C53C2F2000377
:10139800DB68DB683B603B6803F10403184600F038
:1013A80033FE40F24853C2F200031B6803F1FF32D8
:1013B80040F24853C2F200031A6040F23053C2F2BE
:1013C80000031B6803F1FF3240F23053C2F20003FE
:1013D8001A6000F05FFF386800F08AF840F2305376
:1013E800C2F200031B68002BBAD107F10807BD46FB
:1013F80080BD00BF80B582B000AF786040F2704316
:10140800C2F200031B687A685A6040F24C53C2F279
:1014180000031B687A689A4210D240F20453C2F261
:1014280000031A6840F27043C2F200031B6803F11C
:1014380004031046194600F0ADFD1DE040F20053CC
:10144800C2F200031A6840F27043C2F200031B683C
:1014580003F104031046194600F09CFD40F2040312
:10146800C2F200031B687A689A4205D240F204036C
:10147800C2F200037A681A6007F10807BD4680BD0A
:1014880080B584B000AF03463960FB804FF04C0054
:1014980001F0A8FAF860FB68002B23D03B68002B0A
:1014A80007D1FB884FEA8303184601F09BFA0346ED
:1014B80000E03B68FA681363FB681B6B002B06D1DE
:1014C800F86801F0F5FA4FF00003FB600AE0FB68EA
:1014D8001A6BFB884FEA830310464FF0A5011A46A2
:1014E80001F05EFFFB68184607F11007BD4680BD96
:1014F80080B582B000AF78607B681B6B184601F03E
:10150800D7FA786801F0D4FA07F10807BD4680BD1C
:1015180080B483B000AF40F27043C2F200031B688E
:101528007B607B68184607F10C07BD4680BC704796
:1015380080B483B000AF40F25453C2F200031B687A
:10154800002B03D14FF000037B600DE040F25853AD
:10155800C2F200031B68002B03D14FF001037B602C
:1015680002E04FF002037B607B68184607F10C0726
:10157800BD4680BC704700BF80B584B000AF7860BE
:101588007B68FB607B68002B66D0FB68DA6A40F2F8
:101598007043C2F200031B68DB6A9A425CD240F2D5
:1015A8007043C2F200031B68DB6AC3F10502FB68E3
:1015B8009A61FB685969FB68DA6A13464FEA830344
:1015C8009B184FEA830340F27442C2F200029B1850
:1015D800994202D14FF0010301E04FF00003002BC4
:1015E80032D0FB6803F10403184600F00DFD40F209
:1015F8007043C2F200031B68DA6AFB68DA62FB68B0
:10160800DA6A40F25053C2F200031B689A4206D9C4
:10161800FB68DA6A40F25053C2F200031A60FB68B2
:10162800DA6A13464FEA83039B184FEA830340F2B2
:101638007442C2F200029A18FB6803F104031046D0
:10164800194600F083FC07E040F27043C2F2000341
:101658001B68DA6AFB68DA6207F11007BD4680BDCD
:1016680080B584B000AF78607B68FB607B68002B36
:1016780039D0FB68DA6AFB689B6C9A4233D0FB6806
:1016880003F10403184600F0BFFCFB689A6CFB6882
:10169800DA62FB68DB6AC3F10502FB689A61FB68E2
:1016A800DA6A40F25053C2F200031B689A4206D924
:1016B800FB68DA6A40F25053C2F200031A60FB6812
:1016C800DA6A13464FEA83039B184FEA830340F212
:1016D8007442C2F200029A18FB6803F10403104630
:1016E800194600F033FC07F11007BD4680BD00BF66
:1016F80080B584B000AF786039607B68FB60FB68B8
:10170800002B02D100F0E0FDFEE700F0ADFDFB6824
:101718001A68FB68DB6BF968096C01FB03F3D218E4
:10172800FB685A60FB684FF000029A63FB681A680E
:10173800FB689A60FB681A68FB68DB6B03F1FF3390
:10174800F968096C01FB03F3D218FB68DA60FB68DF
:101758004FF0FF325A64FB684FF0FF329A643B68DF
:10176800002B0FD1FB681B69002B17D0FB6803F116
:1017780010031846FFF74EFC0346012B0ED100F06C
:1017880063FD0BE0FB6803F11003184600F0B0FBA3
:10179800FB6803F12403184600F0AAFB00F07AFD69
:1017A8004FF00103184607F11007BD4680BD00BF82
:1017B80080B588B000AFF860B9601346FB714FF090
:1017C8000003FB61FB68002B2DD04FF0500001F0A7
:1017D80009F9B861BB69002B25D0FB68BA6802FB20
:1017E80003F303F101037B61786901F0FBF802461A
:1017F800BB691A60BB691B68002B11D0BB69FA680A
:10180800DA63BB69BA681A64B8694FF00101FFF777
:101818006FFFBB69FA7983F84D20BB69FB6102E071
:10182800B86901F045F9FB69002B02D100F04CFDC5
:10183800FEE7FB69184607F12007BD4680BD00BFDB
:1018480080B588B000AFF860B9607A603B604FF04F
:101858000003FB61FB68BB61BB69002B02D100F090
:1018680033FDFEE7BB68002B03D1BB691B6C002B63
:1018780002D14FF0010301E04FF00003002B02D129
:1018880000F022FDFEE73B68022B03D1BB69DB6B4E
:10189800012B02D14FF0010301E04FF00003002BB0
:1018A80003D100F011FDFEE700BF00F0DDFCBB69CD
:1018B8009A6BBB69DB6B9A4202D33B68022B18D147
:1018C800B869B9683A6800F0C7F9BB695B6A002B68
:1018D8000AD0BB6903F124031846FFF79BFB0346B4
:1018E800012B01D100F0B0FC00F0D4FC4FF0010353
:1018F8005DE07B68002B04D100F0CCFC4FF00003C6
:1019080055E0FB69002B07D107F110031846FFF7D4
:10191800EFFB4FF00103FB6100F0BCFCFFF748F858
:1019280000F0A2FCBB695B6CB3F1FF3F03D1BB695C
:101938004FF000025A64BB699B6CB3F1FF3F03D1BF
:10194800BB694FF000029A6400F0A4FC07F1100292
:1019580007F1040310461946FFF7E6FB0346002B80
:101968001ED1B86900F078FA0346002B12D0BB6983
:1019780003F110027B6810461946FFF7D9FAB869D7
:1019880000F000FAFFF726F80346002B8CD100F090
:101998005BFC89E7B86900F0F5F9FFF71BF883E706
:1019A800B86900F0EFF9FFF715F84FF00003184693
:1019B80007F12007BD4680BD80B588B000AFF8604C
:1019C800B9607A603B60FB68BB61BB69002B02D1E0
:1019D80000F07AFCFEE7BB68002B03D1BB691B6CE7
:1019E800002B02D14FF0010301E04FF00003002B60
:1019F80002D100F069FCFEE73B68022B03D1BB690A
:101A0800DB6B012B02D14FF0010301E04FF0000323
:101A1800002B02D100F058FCFEE700F0CBFC00F0F0
:101A280053FC7861BB699A6BBB69DB6B9A4202D342
:101A38003B68022B28D1B869B9683A6800F00CF9FC
:101A4800BB699B6CB3F1FF3F14D1BB695B6A002B88
:101A580016D0BB6903F124031846FFF7DBFA0346E7
:101A6800002B0DD07B68002B0AD07B684FF0010259
:101A78001A6005E0BB699B6C03F10102BB699A64BB
:101A88004FF00103FB6102E04FF00003FB6178694E
:101A980000F024FCFB69184607F12007BD4680BD0D
:101AA80080B58AB000AFF860B9607A603B604FF0EB
:101AB80000037B62FB683B623B6A002B02D100F0AB
:101AC80003FCFEE7BB68002B03D13B6A1B6C002BB1
:101AD80002D14FF0010301E04FF00003002B03D1C6
:101AE80000F0F2FBFEE700BF00F0BEFB3B6A9B6B19
:101AF800002B3FD03B6ADB68FB61386AB96800F0AD
:101B080019F93B68002B1ED13B6A9B6B03F1FF322E
:101B18003B6A9A633B6A1B68002B04D1FFF7F8FC09
:101B280002463B6A5A603B6A1B69002B1DD03B6A20
:101B380003F110031846FFF76DFA0346012B14D181
:101B480000F082FB11E03B6AFA69DA603B6A5B6A83
:101B5800002B0AD03B6A03F124031846FFF75AFA10
:101B68000346002B01D000F06FFB00F093FB4FF011
:101B780001036BE07B68002B04D100F08BFB4FF076
:101B8800000363E07B6A002B07D107F114031846B2
:101B9800FFF7AEFA4FF001037B6200F07BFBFEF724
:101BA80007FF00F061FB3B6A5B6CB3F1FF3F03D1B9
:101BB8003B6A4FF000025A643B6A9B6CB3F1FF3FEB
:101BC80003D13B6A4FF000029A6400F063FB07F10F
:101BD800140207F1040310461946FFF7A5FA034655
:101BE800002B2CD1386A00F01DF90346002B20D0B9
:101BF8003B6A1B68002B08D100F036FB3B6A5B6828
:101C08001846FFF7B9FC00F045FB3B6A03F12402D4
:101C18007B6810461946FFF78BF9386A00F0B2F86E
:101C2800FEF7D8FE0346002B7FF45DAF00F00CFBF7
:101C380059E7386A00F0A6F8FEF7CCFE53E7386A91
:101C480000F0A0F8FEF7C6FE4FF00003184607F1B3
:101C58002807BD4680BD00BF80B584B000AFF860DE
:101C6800B9607A60FB681B6C002B0DD1FB681B68A0
:101C7800002B55D1FB685B681846FFF7F1FCFB6841
:101C88004FF000025A604BE07B68002B1AD1FB68CA
:101C98009A68FB681B6C1046B9681A4601F0DEFAB0
:101CA800FB689A68FB681B6CD218FB689A60FB6833
:101CB8009A68FB685B689A4232D3FB681A68FB68CB
:101CC8009A602DE0FB68DA68FB681B6C1046B968FF
:101CD8001A4601F0C3FAFB68DA68FB681B6CC3F1AB
:101CE8000003D218FB68DA60FB68DA68FB681B68D7
:101CF8009A4208D2FB685A68FB681B6CC3F1000360
:101D0800D218FB68DA607B68022B09D1FB689B6BF1
:101D1800002B05D0FB689B6B03F1FF32FB689A63CD
:101D2800FB689B6B03F10102FB689A6307F11007DC
:101D3800BD4680BD80B582B000AF786039607B68F1
:101D48001B68002B19D07B68DA687B681B6CD2187B
:101D58007B68DA607B68DA687B685B689A4203D3E1
:101D68007B681A687B68DA607B68DA687B681B6C5A
:101D7800386811461A4601F071FA07F10807BD469E
:101D880080BD00BF80B582B000AF786000F06CFA0B
:101D980014E07B685B6A002B15D07B6803F1240391
:101DA8001846FFF737F90346002B01D0FFF714FA5E
:101DB8007B689B6C03F1FF327B689A647B689B6C41
:101DC800002BE6DC00E000BF7B684FF0FF329A642E
:101DD80000F060FA00F048FA14E07B681B69002BF9
:101DE80015D07B6803F110031846FFF713F9034673
:101DF800002B01D0FFF7F0F97B685B6C03F1FF3231
:101E08007B685A647B685B6C002BE6DC00E000BFF3
:101E18007B684FF0FF325A6400F03CFA07F108077C
:101E2800BD4680BD80B584B000AF786000F01CFA74
:101E38007B689B6B002B03D14FF00103FB6002E032
:101E48004FF00003FB6000F025FAFB68184607F125
:101E58001007BD4680BD00BF80B584B000AF786074
:101E680000F002FA7B689A6B7B68DB6B9A4203D1BD
:101E78004FF00103FB6002E04FF00003FB6000F04D
:101E880009FAFB68184607F11007BD4680BD00BF78
:101E980080B584B000AF786039607B68FB6000F083
:101EA800E3F9FB685B6CB3F1FF3F03D1FB684FF0CC
:101EB80000025A64FB689B6CB3F1FF3F03D1FB68D7
:101EC8004FF000029A6400F0E5F9FB689B6B002B69
:101ED80006D1FB6803F1240318463968FFF76AF84E
:101EE800F868FFF74FFF07F11007BD4680BD00BF38
:101EF80080B483B000AF78607B6803F108027B6828
:101F08005A607B684FF0FF329A607B6803F10802E1
:101F18007B68DA607B6803F108027B681A617B687A
:101F28004FF000021A6007F10C07BD4680BC7047ED
:101F380080B483B000AF78607B684FF000021A610C
:101F480007F10C07BD4680BC704700BF80B485B060
:101F580000AF786039607B685B68FB603B68FA6853
:101F68005A60FB689A683B689A60FB689B683A68A5
:101F78005A60FB683A689A603B687A681A617B68BD
:101F88001B6803F101027B681A6007F11407BD465C
:101F980080BC704780B485B000AF786039603B681A
:101FA8001B68BB60BB68B3F1FF3F03D17B681B694B
:101FB800FB600DE07B6803F10803FB6002E0FB684F
:101FC8005B68FB60FB685B681A68BB689A42F6D975
:101FD800FB685A683B685A603B685B683A689A6075
:101FE8003B68FA689A60FB683A685A603B687A68A6
:101FF8001A617B681B6803F101027B681A6007F1AC
:102008001407BD4680BC704780B485B000AF7860C7
:102018007B685B687A6892689A607B689B687A6874
:1020280052685A607B681B69FB60FB685A687B686A
:102038009A4203D17B689A68FB685A607B684FF0C4
:1020480000021A61FB681B6803F1FF32FB681A6023
:10205800FB681B68184607F11407BD4680BC70472B
:1020680080B485B000AFF860B9607A60FB68A3F10E
:102078000403FB60FB684FF080721A60FB68A3F1F1
:102088000403FB60BA68FB681A60FB68A3F10403E9
:10209800FB6042F2DD03C0F60003FA681360FB68D8
:1020A800A3F11403FB607A68FB681A60FB68A3F16C
:1020B8000403FB60FB686FF002021A60FB68A3F17F
:1020C8002003FB60FB68184607F11407BD4680BC77
:1020D800704700BF80B500AF40F20803C2F20003AA
:1020E8001B68B3F1FF3F02D000F0EEF8FEE700F006
:1020F800EBF8FEE7054B19680868B0E8F04F80F385
:1021080009884FF0000080F31188704770040020A0
:1021180003480068006880F3088862B600DF00BFE3
:1021280008ED00E080B584B000AF4FF46443CEF210
:102138000003FB60FB681B78DBB2BB60FB684FF0F9
:10214800FF021A70FB681B78DBB2FB71FB79DBB20C
:1021580003F05003DAB240F26C53C2F200031A7073
:1021680040F27053C2F200034FF007021A6011E008
:1021780040F27053C2F200031B6803F1FF3240F2D1
:102188007053C2F200031A60FB79DBB24FEA4303D3
:10219800DBB2FB71FB79DBB2DBB25BB2002BE7DBB6
:1021A80040F27053C2F200031B684FEA032240F268
:1021B8007053C2F200031A6040F27053C2F2000377
:1021C8001B6803F4E06240F27053C2F200031A6025
:1021D800BB68DAB2FB681A704EF62053CEF20003E1
:1021E8004EF62052CEF20002126842F470021A60D3
:1021F8004EF62053CEF200034EF62052CEF20002E5
:10220800126842F070421A6000F0AAF840F208031F
:10221800C2F200034FF000021A6000F0C1F84EF657
:102228003473CEF200034EF63472CEF20002126816
:1022380042F040421A60FFF76BFF4FF00003184668
:1022480007F11007BD4680BD80B400AF4EF60453B9
:10225800CEF200034FF080521A60BFF34F8FBFF3E6
:102268006F8FBD4680BC704780B500AF00F02CF87A
:1022780040F20803C2F200031B6803F1010240F2B6
:102288000803C2F200031A60BFF34F8FBFF36F8FCA
:1022980080BD00BF80B500AF40F20803C2F2000362
:1022A8001B6803F1FF3240F20803C2F200031A6010
:1022B80040F20803C2F200031B68002B03D14FF061
:1022C800000000F00BF880BDEFF311804FF05001D3
:1022D80081F3118870474FF00003184680F3118886
:1022E800704700BFEFF30980114B1A681EF0100FFA
:1022F80008BF20ED108A20E9F04F10602DE9084052
:102308004FF0500080F31188FEF760FD4FF0000099
:1023180080F31188BDE8084019680868B0E8F04FF4
:102328001EF0100F08BFB0EC108A80F309887047C0
:102338007004002080B500AFFFF7C6FFFEF718FC59
:102348000346002B06D04EF60453CEF200034FF09E
:1023580080521A604FF00000FFF7C0FF80BD00BF39
:1023680080B400AF4EF21403CEF2000340F2000234
:10237800C2F20002116844F6D352C1F26202A2FB13
:1023880001024FEA921202F1FF321A604EF2100374
:10239800CEF200034FF007021A60BD4680BC7047BA
:1023A800DFF80C00016841F470010160704700001B
:1023B80088ED00E090B583B000AFEFF305847C6052
:1023C8007B680F2B13D943F25C63C0F600031A68CD
:1023D8007B68D3181B78FB7040F26C53C2F2000381
:1023E8001B78FA789A4202D2FFF76EFFFEE74EF6A4
:1023F8000C53CEF200031B6803F4E06240F2705302
:10240800C2F200031B689A4202D9FFF75DFFFEE79C
:1024180007F10C07BD4690BD80B586B004AF4FF0FC
:1024280000037B6000F0A4FA40F2A453C2F2000358
:102438001B68002B1AD04FF0020300934FF00003E3
:1024480001934FF0000302934FF00003039342F20D
:10245800B550C0F6000043F2FC41C0F600014FF44D
:1024680082724FF00003FEF721F978607B68002B39
:1024780002D1FFF729FFFEE77B68184607F1080736
:10248800BD4680BD80B588B000AFF860B9607A609D
:102498003B604FF00003FB6140F2A453C2F200031B
:1024A8001B68002B3DD0BB683B617B687B61FB6888
:1024B800BB613B68002B25D1FFF73AF80346012B97
:1024C8000FD140F2A453C2F200031A6807F11003B7
:1024D80010461946BA6A4FF00003FFF7B1F9F861E0
:1024E8001FE040F2A453C2F200031A6807F1100378
:1024F800104619464FF000024FF00003FFF7A0F90D
:10250800F8610EE040F2A453C2F200031A6807F122
:102518001003104619463A684FF00003FFF74CFACB
:10252800F861FB69184607F12007BD4680BD00BF6A
:1025380080B586B002AF7860396040F29C53C2F231
:1025480000031B68DB68DB68FB60FB6803F10403BE
:102558001846FFF759FDFB68DB69012B1ED1FB68A4
:102568009A697B68D318F86819463A687B6800F05E
:10257800BFF80346012B11D14FF000030093F86810
:102588004FF000017A684FF00003FFF77BFFB86057
:10259800BB68002B02D1FFF797FEFEE7FB685B6A7A
:1025A800F868984707F11007BD4680BD80B584B02C
:1025B80000AF786007F10803184600F043F8F860A8
:1025C800BB68F868194600F003F800F0DBF8F1E79B
:1025D80080B584B000AF78603960FEF7E9F907F19B
:1025E8000803184600F058F8F860BB68002B21D1A2
:1025F8003B68002B0AD17A68FB689A4206D8FEF736
:10260800E9F97868F968FFF793FF17E040F2A453F7
:10261800C2F200031A687968FB68CB1A104619469B
:10262800FFF736FCFEF7D6F90346002B05D1FFF776
:102638000BFE02E0FEF7CEF900E000BF07F110073D
:10264800BD4680BD80B485B000AF786040F29C5331
:10265800C2F200031B681B68002B14BF0023012370
:10266800DBB21A467B681A607B681B68002B08D1AE
:1026780040F29C53C2F200031B68DB681B68FB60D6
:1026880002E04FF00003FB60FB68184607F11407EF
:10269800BD4680BC704700BF80B584B000AF78608D
:1026A800FEF752FAF86040F2A853C2F200031B6822
:1026B800FA689A420CD240F2A853C2F200031B688F
:1026C800184600F0E1F87B684FF001021A6003E059
:1026D8007B684FF000021A6040F2A853C2F2000370
:1026E800FA681A60FB68184607F11007BD4680BDF6
:1026F80080B586B000AFF860B9607A603B604FF093
:1027080000037B61FB68BA685A60FB68FA681A6163
:10271800BA687B689A4217D87A683B68D21AFB680D
:102728009B699A4203D34FF001037B6124E040F296
:10273800A053C2F200031A68FB6803F104031046B1
:102748001946FFF727FC17E07A683B689A4207D2D8
:10275800BA683B689A4203D34FF001037B610BE0F0
:1027680040F29C53C2F200031A68FB6803F10403A9
:1027780010461946FFF70EFC7B69184607F1180743
:10278800BD4680BD80B58AB002AF66E03B69FB619B
:10279800FB695B69002B05D0FB6903F1040318464C
:1027A800FFF732FC07F104031846FFF775FFB8611D
:1027B800BB68032B4ED801A252F823F0D527000896
:1027C8005D2800082B28000855280008FA68FB69CE
:1027D8009B69D218FB68F8691146BA69FFF788FF48
:1027E8000346012B38D1FB695B6AF8699847FB6996
:1027F800DB69012B30D1FA68FB699B69D3184FF06C
:1028080000020092F8694FF000011A464FF00003E9
:10281800FFF738FE78617B69002B1DD1FFF754FD67
:10282800FEE7FA68FB699A61FB699B69002B02D194
:10283800FFF74AFDFEE7FB699A69BB69D318F86997
:102848001946BA69BB69FFF753FF06E0F86900F05B
:102858002FF902E000BF00E000BF40F2A453C2F22B
:1028680000031A6807F10803104619464FF00002E2
:102878004FF00003FFF714F90346002B86D107F148
:102888002007BD4680BD00BF80B58AB002AF786022
:102898004BE040F29C53C2F200031B68DB681B68E4
:1028A800FB6140F29C53C2F200031B68DB68DB68E3
:1028B800BB61BB6903F104031846FFF7A5FBBB69BD
:1028C8005B6AB8699847BB69DB69012B2DD1BB6985
:1028D8009A69FB69D3187B617A69FB699A4212D9B4
:1028E800BB697A695A60BB69BA691A6140F29C533C
:1028F800C2F200031A68BB6903F1040310461946C3
:10290800FFF748FB11E04FF000030093B8694FF060
:102918000001FA694FF00003FFF7B4FD38613B6925
:10292800002B02D1FFF7D0FCFEE740F29C53C2F225
:1029380000031B681B68002BABD140F29C53C2F20A
:1029480000031B68FB6040F2A053C2F200031A6840
:1029580040F29C53C2F200031A6040F2A053C2F244
:102968000003FA681A6007F12007BD4680BD00BF62
:1029780080B500AFFFF778FC40F2A453C2F2000321
:102988001B68002B2BD140F27450C2F20000FFF7F5
:10299800AFFA40F28850C2F20000FFF7A9FA40F2FD
:1029A8009C53C2F2000340F27452C2F200021A6051
:1029B80040F2A053C2F2000340F28852C2F2000271
:1029C8001A604FF00A004FF00C014FF00002FEF7BA
:1029D800EFFE024640F2A453C2F200031A60FFF76A
:1029E80059FC80BD80B584B000AF78604FF000031B
:1029F800FB607B6803F00703002B05D07B6823F09E
:102A0800070303F108037B60FDF7D2FF43F2B0131D
:102A1800C2F201031B68002B08D1244B23F00703E3
:102A28001A4643F2B013C2F201031A6043F2AC1320
:102A3800C2F201031A687B68D21842F6F733C0F273
:102A480001039A4225D843F2AC13C2F201031A6873
:102A58007B68D21843F2AC13C2F201031B689A4296
:102A680017D943F2B013C2F201031A6843F2AC1348
:102A7800C2F201031B68D318FB6043F2AC13C2F225
:102A880001031A687B68D21843F2AC13C2F201033F
:102A98001A60FDF79FFFFB68002B01D1FDF76CFC66
:102AA800FB68184607F11007BD4680BDB405002035
:102AB80080B582B000AF78607B68002B02D0FFF74A
:102AC80003FCFEE707F10807BD4680BD80B588B066
:102AD80004AF78604FF00003FB601CE07B68009354
:102AE8004FF0000301934FF0000302934FF00003EF
:102AF800039342F62D30C0F6000043F20451C0F6AD
:102B080000014FF082024FF00003FDF7CFFDFB6894
:102B180003F10103FB60FB68022BDFDD07F11007FF
:102B2800BD4680BD80B586B000AF7860FFF79CFBDE
:102B380043F2B413C2F201031B687B6143F2B4137E
:102B4800C2F201031B6803F1010243F2B413C2F29B
:102B580001031A60FFF79EFB7B6903F1010340F252
:102B68004D1202FB03F33B613B694FEA53033B61A0
:102B7800FDF7EAFF0346FB6007F10C0318463969C5
:102B8800FDF774FE7869FDF729FC07F10C03184678
:102B98003969FDF76BFE7869FDF720FCECE700BFAB
:102BA80080B584B000AF0346FB71FA7943F26863DD
:102BB800C0F6000353F8223018464FF0010100F028
:102BC800DFF9FA7943F26063C0F6000333F8123094
:102BD800BB604FF001033B734FF00003BB734FF032
:102BE8000103FB734FF002037B73FA7940F20C0385
:102BF800C2F2000353F8222007F1080310461946D1
:102C080000F074F807F11007BD4680BD80B483B0AA
:102C180000AF0346FB71FA7940F20C03C2F20003DD
:102C280053F82220F97940F20C03C2F2000353F85A
:102C380021305969F87943F26063C0F6000333F82C
:102C480010304B40536107F10C07BD4680BC7047FC
:102C580080B582B000AF78607B68B3F5E06F17D0BD
:102C68007B68B3F5C06F13D07B68B3F5A06F0FD046
:102C78007B68B3F5806F0BD07B68B3F5407F07D0D6
:102C880043F20C50C0F600004FF07301FDF788FBCB
:102C98004FF46D43CEF200037A6842F0BF6242F40B
:102CA8000032DA6007F10807BD4680BD80B582B002
:102CB80000AF78607B684FEAD3534FEAC353002BC9
:102CC80002D17B68002B07D143F25450C0F60000B4
:102CD80040F21D11FDF764FB4FF47053C4F2010379
:102CE8007A685A6107F10807BD4680BD80B586B08D
:102CF80000AF786039604FF000037B614FF000034C
:102D08003B614FF00003FB607A684FF00003C4F2A8
:102D180002039A423FD07A684FF48063C4F20203F8
:102D28009A4238D07A684FF40063C4F202039A4298
:102D380031D07A684FF44063C4F202039A422AD031
:102D48007A684FF48053C4F202039A4223D07A6817
:102D58004FF4A053C4F202039A421CD07A684FF48D
:102D6800C053C4F202039A4215D07A684FF4E05374
:102D7800C4F202039A420ED07A684FF40053C4F2A8
:102D880002039A4207D043F2A450C0F600004FF065
:102D9800BB01FDF705FB3B681B68002B07D143F21D
:102DA800A450C0F600004FF0BC01FDF7F9FA3B68EB
:102DB8001B79002B13D03B681B79012B0FD03B6884
:102DC8001B79022B0BD03B681B79032B07D043F2EE
:102DD800A450C0F600004FF0BD01FDF7E1FA3B68D2
:102DE800DB79002B0FD03B68DB79012B0BD03B68DC
:102DF800DB79022B07D043F2A450C0F600004FF055
:102E0800BE01FDF7CDFA4FF000037B61AFE07B69AF
:102E18004FF0010202FA03F33B613B681A683B6911
:102E28001340FB60FA683B699A4240F09C807B68DB
:102E38001A687B694FEA43034FF0030101FA03F371
:102E48006FEA03031A407B681A607B681A683B685C
:102E58001B7919467B694FEA430301FA03F31A43C6
:102E68007B681A603B681B79012B03D03B681B7990
:102E7800022B5CD13B685B79002B13D03B685B79F4
:102E8800012B0FD03B685B79022B0BD03B685B7939
:102E9800032B07D043F2A450C0F600004FF0D00136
:102EA800FDF77EFA7B689A687B694FEA43034FF027
:102EB800030101FA03F36FEA03031A407B689A607F
:102EC8007B689A683B685B7919467B694FEA4303DC
:102ED80001FA03F31A437B689A603B689B79002BDD
:102EE8000BD03B689B79012B07D043F2A450C0F666
:102EF80000004FF0D701FDF753FA7B685A687B69E9
:102F08009BB24FF0010101FA03F36FEA03031A4081
:102F18007B685A607B685A683B689B7919467B696D
:102F28009BB201FA03F39BB21A437B685A607B6831
:102F3800DA687B699BB24FEA43034FF0030101FA59
:102F480003F36FEA03031A407B68DA607B68DA6888
:102F58003B68DB7919467B694FEA430301FA03F3BF
:102F68001A437B68DA607B6903F101037B617B6943
:102F78000F2B7FF64CAF07F11807BD4680BD00BF89
:102F880080B582B000AF78600B46FB707A684FF46A
:102F98006E43C8F28B131340002B02D17B68002BC1
:102FA80007D143F2F450C0F600004FF48861FDF7F2
:102FB800F7F9FB78002B0AD0FB78012B07D043F2F6
:102FC800F450C0F6000040F24241FDF7E9F9FB7801
:102FD800002B0CD04FF46053C4F202034FF460523C
:102FE800C4F20202116B7A680A431A630DE04FF4C7
:102FF8006053C4F202034FF46052C4F20202116B30
:103008007A686FEA02020A401A6307F10807BD46A8
:1030180080BD00BF2DE9F041274C2568D5F848410F
:1030280084B00746002C41D066681F2E1CDD23485B
:1030380010B94FF0FF301FE04FF4C87003910292AF
:103048000193AFF300800399029A019B044600287C
:10305800EFD0D5F84861002060602660C5F8484187
:10306800C4F88801C4F88C01656847B9A81C013503
:1030780044F820106560002004B0BDE8F081D4F861
:103088008861012004EB850800FA05F00643022F49
:10309800C8F88820C4F88861C8F80831E6D1D4F89F
:1030A8008C3143EA0002C4F88C21DFE705F5A674E9
:1030B800C5F84841B8E700BF7C36000800000000AA
:1030C80070B5114B114C181B811018D004EB8104FA
:1030D8004E1E354654F8042D06F00106904775B18A
:1030E80026B154F8043D9847013D08D054F8040D22
:1030F8008047013D54F8041D8847013DF6D1BDE8DD
:10310800704000F0BFBA00BFA4360008A03600081F
:10311800F8B5204F204C381B871017D07A1E23682B
:10312800012502F001069847AF420FD02EB154F89E
:10313800041F02258847AF4208D0606880470235DF
:10314800A268261D90470834AF42F6D1134F144C9D
:1031580000F092FA3B1B9F1018D07D1E216805F0E5
:10316800010601258847AF4211D02EB154F8040F4B
:1031780002258047AF420BD0626890470235A368AA
:10318800261D98470834AF42F6D1F8BDF8BDF8BD02
:10319800F8BD00BF9836000898360008A036000829
:1031A80098360008032AF0B431D941EA00039C0795
:1031B8002ED106680F68151F031D0C1DBE42C5F3EE
:1031C800800C24D1032D2A461FD9BCF1000F08D04A
:1031D80025681E682146184604340433AE4211D0CF
:1031E80015E01846214623680468051D0E1D9C42FB
:1031F8000DD12846314635680668043A031D0C1D72
:10320800AE4204D1043A032AEBD8214618461AB331
:1032180003780C78A3420AD1551E0022EB0714D577
:1032280010F8013F11F8014F0122A3420DD0181BDD
:1032380010E010F8013F11F8014FA342F7D110F840
:10324800013F11F8014FA342F1D1AA4202F1020253
:10325800EFD10020F0BC70471046FBE70F2A2DE99C
:10326800F00340F2958041EA00039B0740F092800A
:103278000C6804604D6845608E68A2F11003866092
:10328800CC681D460F2DC460C3F3001601F110046D
:1032980000F1100322D966B126681E6066685E6078
:1032A800A6689E60E668103DDE60103410330F2D6E
:1032B80014D926681E6066685E60A6689E60E66827
:1032C800DE6026691E6166695E61A6699E61E669BF
:1032D800203DDE61203420330F2DEAD8A2F11003FF
:1032E80023F00F0402F00F031034032B00EB040843
:1032F800214451D9A3F104090B464FEA990901EB7E
:10330800890C53F8046BC1EB0C0544460CF1040C12
:10331800634544F8046BC5F3800512D02DB153F80A
:10332800045B634544F8045B0BD01E46254656F8FB
:10333800047B45F8047B5F68331D67602C1D63457B
:10334800F3D109F101039C00091902F00302444476
:10335800DAB123460D7803F8015BA218E443141987
:10336800934204F0010410D02CB111F8014F03F876
:10337800014B934209D04D781C4604F8015B8D78C7
:103388005D70631C02319342F5D1BDE8F0037047CC
:103398000446DDE70446DCE744461A46D8E700BFA2
:1033A800F0B48407034600F08E80541E002A00F013
:1033B8008880E507CEB211D41A46671E02F8016B61
:1033C8001346154692070FD0002C7AD003F8016BEC
:1033D8009A073C461D4607D0013CEDE7034603F833
:1033E800016B9A071D46F7D1032C52D9CEB246EA93
:1033F80006270F2C47EA07432DD9A4F110021746D8
:103408000F2FC2F300162B606B60AB60EB6005F109
:10341800100216D93EB1103F136053609360D36019
:1034280010320F2F0DD9203F02F1100613605360A0
:103438009360D360136153619361D36120320F2F7E
:10344800F1D8A4F1100222F00F0204F00F04103298
:10345800032C15441DD9271F3E462A46032E42F841
:10346800043BC7F380070DD927B1043E032E42F869
:10347800043B07D91746083E47F8043B53603A1DFA
:10348800032EF7D8231F23F00302131D04F00304AF
:10349800ED18B4B12B46C9B203F8011B2C19ED4342
:1034A8006219A34202F001050BD01DB103F8011BFC
:1034B800A34206D01A4602F8011B5970531CA342B6
:1034C800F8D1F0BC7047054614468DE7024B13B19E
:1034D800024800F005B8704700000000C930000835
:1034E8000146002002460346FFF794BD49444C4577
:1034F80000000000546D7220537663004C454478F8
:10350800000000004170702F53544D333246342D63
:10351800446973636F766572792F4C696272617260
:103528006965732F53544D3332463478785F53743A
:10353800645065726970685F4472697665722F734A
:1035480072632F6D6973632E630000004170702FE2
:1035580053544D333246342D446973636F76657224
:10356800792F4C69627261726965732F53544D33B8
:1035780032463478785F5374645065726970685F56
:103588004472697665722F7372632F73746D333268
:10359800663478785F657874692E63004170702F9F
:1035A80053544D333246342D446973636F766572D4
:1035B800792F4C69627261726965732F53544D3368
:1035C80032463478785F5374645065726970685F06
:1035D8004472697665722F7372632F73746D333218
:1035E800663478785F6770696F2E63004170702F5A
:1035F80053544D333246342D446973636F76657284
:10360800792F4C69627261726965732F53544D3317
:1036180032463478785F5374645065726970685FB5
:103628004472697665722F7372632F73746D3332C7
:10363800663478785F7263632E63000001000203CA
:10364800A5A5A5A5A5A5A5A5A5A5A5A5A5A5A5A522
:10365800A5A5A5A5F0E300E000100020004000802B
:103668000800000008000000080000000800000032
:103678004300000020000020F8B500BFF8BC08BCDB
:103688009E467047F8B500BFF8BC08BC9E46704718
:08369800D5340008AD01000863
:0436A0008901000894
:1036A40080D1F008FFFFFFFFAAAAAAAA000C0240DB
:1036B400000C0240000C0240000C0240000000001C
:1036C400000000000C03002074030020DC03002031
:1036D40000000000000000000000000000000000E6
:1036E40000000000000000000000000000000000D6
:1036F4000000000078360008000000000000000010
:1037040000000000000000000000000000000000B5
:1037140000000000000000000000000000000000A5
:103724000000000000000000000000000000000095
:103734000000000000000000000000000000000085
:103744000000000000000000000000000000000075
:103754000000000000000000000000000000000065
:103764000000000000000000010000000000000054
:103774000E33CDAB34126DE6ECDE05000B00000019
:103784000000000000000000000000000000000035
:103794000000000000000000000000000000000025
:1037A4000000000000000000000000000000000015
:1037B4000000000000000000000000000000000005
:0400000508000419D2
:00000001FF
